:1000000000E00FBF0FE004B900EF0AB90E94090039
:10001000F7CF4DE153E36AE270EE852F872385B970
:100020008BB98695869586958695869585B98BB983
:100030000E9433007FE1962F9723990F990F692B28
:1000400065B96BB90E9433009CE1A52FA923A69541
:10005000A69555B95BB9B3E0C52FCB2345B94BB9CC
:1000600095B99BB908951FEF00002FEF000039E10B
:1000700000003A953030E1F72A952030B9F71A950B
:06008000103091F7089515
:00000001FF
