:1000000000E00FBF0FE004B901E005B93CE30E9436
:10001000460000E005B934E10E94460001E005B960
:1000200034E10E94460000E005B934E10E94460038
:1000300001E005B934E10E94460000E005B93CE367
:100040000E94460001E005B934E10E94460000E04C
:1000500005B934E10E94460001E005B934E10E948F
:10006000460000E005B93CE30E94460001E005B906
:100070003CE30E94460000E005B934E10E944600DE
:1000800001E005B93CE30E944600C0CF01E000005A
:100090001FEF00002EE700002A952030E1F71A95A7
:1000A0001030B9F70A95003091F73A95303071F772
:0200B0000895B1
:00000001FF
